:020000040800F2
:10000000D07F0120F50100081D0200081F02000832
:100010002102000823020008250200080000000059
:10002000000000000000000000000000270200089F
:100030002902000800000000F5080008793C0008CB
:100040002F0200082F0200082F0200082F020008CC
:100050002F0200082F0200082F0200082F020008BC
:100060002F0200082F0200082F0200082F020008AC
:100070002F0200082F0200082F0200082F0200089C
:100080002F0200082F0200082F0200082F0200088C
:100090002F0200082F0200082F0200082F0200087C
:1000A0002F0200082F0200082F0200082F0200086C
:1000B0002F0200082F0200082F0200082F0200085C
:1000C0002F0200082F0200082F0200082F0200084C
:1000D0002F0200082F0200082F0200082F0200083C
:1000E0002F0200082F0200082F0200082F0200082C
:1000F0002F0200082F0200082F0200082F0200081C
:100100002F020008B95900082F0200082F0200082A
:100110002F0200082F0200082F0200082F020008FB
:100120002F0200082F0200082F0200080D0E000801
:100130002F0200082F0200082F0200082F020008DB
:100140002F0200082F0200082F0200082F020008CB
:100150002F0200082F0200082F0200082F020008BB
:100160002F0200082F0200082F0200082F020008AB
:100170002F0200082F0200082F0200082F0200089B
:100180002F0200082F0200082F0200082F0200088B
:100190002F0200082F0200082F0200082F0200087B
:1001A00000000000000000002F020008DFF80CD063
:1001B00000F096FA00480047AD8A0008D07F012081
:1001C00072B6704762B67047EFF3108072B6704730
:1001D00080F31088704730BF704720BF7047B0FA77
:1001E00080F0704790FAA0F0B0FA80F0704790FA73
:1001F000A0F07047DFF83800016841F47001016039
:10020000BFF34F8FDFF82C00016821F040410160FF
:10021000BFF36F8F0848804708480047FEE7FEE7B6
:10022000FEE7FEE7FEE7FEE7FEE7FEE7FEE7FEE7A6
:1002300088ED00E034EF00E0755B0008AD010008D8
:100240002DE9F05F0546002092469B46884606460B
:10025000814640241BE0284641464746224600F09E
:1002600077F853465A46C01A914110D311461846A2
:10027000224600F05EF82D1A67EB01084F46224631
:100280000120002100F055F817EB00094E41201E17
:10029000A4F10104DFDC484631462A464346BDE866
:1002A000F09FD2B201E000F8012B491EFBD270474B
:1002B0000022F6E710B513460A4604461946FFF732
:1002C000F0FF204610BD30B504460020034600E094
:1002D0005B1C934203D2E05CCD5C401BF8D030BD88
:1002E00000F0004230F000400AD0C10D01F560710D
:1002F000C0F3160042EA0151C2084007114370479B
:1003000000200146704730B50B46014600202022F0
:10031000012409E021FA02F59D4205D303FA02F512
:10032000491B04FA02F52844151EA2F10102F1DC72
:1003300030BD202A04DB203A00FA02F10020704789
:100340009140C2F1200320FA03F319439040704713
:10035000202A04DB203A21FA02F00021704721FA1A
:1003600002F3D040C2F12002914008431946704781
:100370002DE9FE4F804681EA0300C00F0C46009035
:1003800021F0004123F00045B8EB0200A94105D25D
:100390004046214690461C460B46024623F000404C
:1003A000104347D0270DC7F30A00C3F30A51029048
:1003B000401A019040286BDAC3F3130040F4801B0D
:1003C0000098924620B10023D2EB030A63EB0B0B9B
:1003D00001985946C0F140025046FFF7AAFF064671
:1003E0000D4650465946019A00F08CF910EB080072
:1003F0006141002487EA115284EAE7731A4340D02E
:10040000009A62B3019A012A4FEA075215DC001BD9
:1004100061EB02014FF0004202EA0752CDE90042CF
:10042000001C41F5801132462B4600F08CF903B0D8
:10043000BDE8F08F40462146F9E7001B61EB020161
:10044000001C41F5801300185B412018A2F500172D
:1004500047EB030140EAD570B6196D4111E06D0814
:100460004FEA360645EAC0754FEA0752001B61EBBA
:100470000201001C41F5801149084FEA30000019C3
:10048000514132462B4603B0BDE8F04F00F04CB965
:100490000098012240000023D0EB020263EBE073DE
:1004A000009821464FEAE074B8EB000061EB0401CC
:1004B000E9E783F000435BE781F0004158E72DE96D
:1004C000FE4F81EA030404F0004421F0004100944F
:1004D0004FF0000B23F0004350EA01045ED052EAD3
:1004E00003045BD0C3F30A54C1F30A552C44A4F2AD
:1004F000F3340194A0FB0254C1F3130141F48011C1
:10050000C3F3130343F4801301FB024400FB034EC7
:10051000840A970A44EA815447EA8357A4FB076890
:1005200002958D0A05FB07854FEA932C04FB0C54BA
:100530002705029D4FEA065847EA1637B5EB08052E
:100540006EEB070C870E920E47EA811742EA831280
:10055000A7FB0201B6EB0B0164EB00042B0D43EA91
:100560000C335E1844EB1C50DA465146E7FB02019F
:10057000C5F313044FEA0B3343EA14534FEA043232
:10058000019C43EA0603A4F10C040294009CCDE90B
:1005900000B400F0D8F803B0BDE8F08F00200146A9
:1005A000F9E72DE9F04D81EA030404F0004B21F056
:1005B000004514464FF0000A23F0004150EA0502BE
:1005C00020D054EA01021DD0C5F30A570246C5F3F4
:1005D0001303C1F31300C1F30A5640F4801543F42A
:1005E0008013A7EB0608101BD64608F2FD3873EB04
:1005F000050002D308F1010801E092185B41B8F14F
:10060000000F03DA00200146BDE8F08D00204FF412
:100610008011064684460EE0171B73EB050705D3D1
:10062000121B63EB050306434CEA010C49084FEA31
:10063000300092185B4150EA0107EDD152EA030005
:1006400012D082EA040083EA0501084305D0101B9A
:10065000AB4106D20122002306E000224FF0004306
:1006600002E06FF0010253101AEB06004CEB085148
:1006700010EB0A0041EB0B01BDE8F04D00F054B85F
:10068000C1F30A52C1F3130140F2FF3341F4801168
:100690009A4202DA00200146704740F233439A4200
:1006A000A2F2334202DC5242FFF752BEFFF741BED4
:1006B00030B5041E71F1000404DB4FF000444042E9
:1006C00064EB0101141E73F1000405DB1C464FF0BE
:1006D0000043524263EB0403994208BF904230BD8D
:1006E000064C074D06E0E06840F0010394E807007F
:1006F00098471034AC42F6D3FFF75CFDE091000858
:1007000000920008202A06DBCB17203A41FA02F0BB
:1007100043EAE07306E041FA02F3D040C2F120025E
:10072000914008431946704710B5141E73F1000438
:1007300008DA401C41F1000192185B411A4301D1D3
:1007400020F0010010BD2DE9F04D92469B4611B1FD
:10075000B1FA81F202E0B0FA80F220329046FFF75F
:10076000E8FD04460F4640EA0A0041EA0B01534601
:100770005A46084313D0114653EA010019D0C8F174
:1007800040025046FFF7E4FD05460E4650465946E6
:100790004246FFF7CEFD084305D0012004E0204685
:1007A0003946BDE8F08D0020054346EAE0762C434B
:1007B00037430A986305E40AA0EB08000022FD0A0B
:1007C00044EA47540A3002D500200146E9E7010512
:1007D00010196941DDE9084500196941BDE8F04D8E
:1007E000A2E770B58C1810F8015B15F0070301D172
:1007F00010F8013B2A1106D110F8012B03E010F884
:10080000016B01F8016B5B1EF9D12B0705D40023A6
:10081000521E0DD401F8013BFAE710F8013BCB1A48
:10082000921C03E013F8015B01F8015B521EF9D53D
:10083000A142D8D3002070BDEFF3098141B1F1EEA0
:10084000101A40F8041D20ED200A3E490A68106085
:100850007047B0EC200A02C8E1EE101A3A490A6863
:100860001060704772B64EF62250CEF2000040F291
:10087000FF01C0F2000101704FF0000080F3098811
:1008800003F078F840F22810C2F20000016881F30A
:10089000088840F2AE00C2F2000040F2AF01C2F29E
:1008A00000010A78027040F22015C2F2000540F201
:1008B0002411C2F200010A682A60106880F30988D6
:1008C000EFF3148040F0020080F31488BFF36F8FC1
:1008D000BDE8F00F0FBCBDE8005006BC62B608478B
:1008E0001A484FF080510160704718484FF080510E
:1008F0000160704772B6EFF3098020E9F00F40F213
:100900002015C2F200052E683060744603F032F8FC
:1009100040F2AE00C2F2000040F2AF01C2F20001AC
:100920000A78027040F22411C2F200010A682A60BB
:1009300044F0F40E1068B0E8F00F80F3098862B656
:1009400070470000200100202401002004ED00E099
:1009500000B58BB00AA8072100220592CDE9062137
:10096000089011464FF400622248D0F83003214B22
:10097000CDE90130CDE90321012000231E4A1FA14A
:100980000090214802F058FC0AA807210022059295
:10099000CDE90621089011464FF400621B48D0F8BB
:1009A00030031A4BCDE90130CDE9032102200023A9
:1009B000174A18A100901A4802F03EFC0AA8072125
:1009C00000220592CDE9062108904FF400611548F8
:1009D000D0F83003134BCDE90130CDE903120320E9
:1009E0001346114A11A10090134802F025FC0BB0E8
:1009F00000BD00007C630020A90A0008417070203F
:100A00005461736B31000000BC6200203C84002004
:100A1000C10A0008417070205461736B32000000FD
:100A20007C830020FCA40020FD0A00084170702097
:100A30005461736B330000003CA400200EB500F03D
:100A400070F8104806F006FB02A802F06BFB00F0FD
:100A5000F7F802A800210B460122CDE90010084654
:100A600003F036F808A005F049F9FFF771FF08E038
:100A700002A800210B460322CDE90010084603F02E
:100A800027F8F5E7B03100204372656174696E673D
:100A9000204170706C69636174696F6E205461737A
:100AA0006B730D0A000000000EB508E002A80021DB
:100AB0000B460122CDE90010084603F009F8F5E7DE
:100AC0000EB50EE007A30B4A04210B4806F0CEFB3F
:100AD00002A8002128230A46CDE90010084602F0AA
:100AE000F7FFEFE7313A53542F747374312E626974
:100AF0006E000000A0860100B03100200EB508E0B5
:100B000002A8002128230A46CDE90010084602F079
:100B1000DFFFF5E71FB5684604F010FE019804B04A
:100B200010BD10B50121080304F0D8FD4FF4A060FA
:100B300001F030FE00F008F806F0A0F910BD10B585
:100B4000FFF73EFB10BD000070B5FFF7E3FF044662
:100B500003480068B4FBF0F5284603F0ADF870BD1B
:100B60004090000810B500F021F900F003F800F003
:100B7000F3F810BD70B50026002018490880184908
:100B80000880184908601849086018490860184921
:100B9000086018490860002400BFFFF715FB0646EF
:100BA00000BF00250BE000201049086000F074F839
:100BB00000F08CF80D4800680444681C85B2002DD4
:100BC000F1D00C480460002008490860084908601A
:100BD00000BF3046FFF7FCFA00BF70BD48000020A0
:100BE0004A0000204C000020500000205800002047
:100BF0005C0000205400002001460846044A1268A8
:100C0000904203D9024A1268801A00E0002070471F
:100C10005400002070B5002500BFFFF7D5FA054647
:100C200000BF0648046800BF2846FFF7D1FA00BF9E
:100C30002046FFF7E1FF0646304670BD5800002011
:100C400070B50025FFF7E6FF044600BFFFF7BCFACA
:100C5000054600BF00200449086000BF2846FFF792
:100C6000B7FA00BF204670BD5800002070B50025BF
:100C700000BFFFF7A9FA054600BF0648046800BF99
:100C80002846FFF7A5FA00BF2046FFF7B5FF064646
:100C9000304670BD5C00002010B509480088401C3B
:100CA000074908800748008818B900F0A9F80649E4
:100CB000086004480088401C0249088010BD0000FC
:100CC000480000204A0000204C00002010B50F48CA
:100CD0000088401E0D49088008460088A0B900F031
:100CE0008FF80B490860084600680A490968441AE9
:100CF00009480068A04201D207480460074800681C
:100D0000A04201D20548046010BD00004A00002046
:100D1000500000204C000020580000205C00002003
:100D200010B5002400BF00BFFFF74EFA044600BF15
:100D3000FFF7B2FF00BF1021064801F05DFC00BFC5
:100D4000FFF7C4FF00BF2046FFF742FA00BF00BF15
:100D500010BD0000FCE4002010B5FFF7E1FF10BD5E
:100D600000BFFEE72DE9F0478246FFF7D3FE4FF0C4
:100D700000098046094A002340464946FFF760FAC9
:100D8000064632460B4650460021FFF759FA044604
:100D90000D4620462946BDE8F087000040420F007E
:100DA00010B500F02DF80446204610BD10B5002007
:100DB0000249086000F00AF810BD0000440000205D
:100DC00001490860704700004400002010B5FFF79B
:100DD000A1FE04460848006840F08070064908609B
:100DE0000020064948600846006840F0010008609D
:100DF0002046FFF7E5FF10BDFCED00E0001000E02D
:100E00000149486870470000001000E010B500F08C
:100E1000D3FF10BD0246094B9A4201D2084801E0B7
:100E20000648103801F000531BB1064B0B40C3605D
:100E300002E0044B0B4083607047000010640240E6
:100E4000006002407D0F7D0F21B1026842F0010277
:100E5000026003E0026822F00102026070470000B5
:100E6000016821F0010101600021016041608160A1
:100E7000C1600161212141614A49884204D13D217B
:100E8000484A103A91608CE046491831884205D1B1
:100E90004FF47461434A103A916082E04149303125
:100EA000884205D14FF474113E4A103A916078E0BF
:100EB0003C494831884205D14FF07461394A103AB3
:100EC00091606EE037496031884204D13649354A35
:100ED000103AD16065E033497831884204D1334912
:100EE000304A103AD1605CE02E499031884204D1FA
:100EF0002F492C4A103AD16053E02A49A831884240
:100F000005D14FF03D51274A103AD16049E02949B7
:100F1000884204D13D21274A083A116041E0254921
:100F20001831884205D14FF47461224A083A1160A1
:100F300037E020493031884205D14FF474111D4A01
:100F4000083A11602DE01B494831884205D14FF025
:100F50007461184A083A116023E0164960318842EA
:100F600004D11149134A121F11601AE01149783156
:100F7000884204D10D490F4A121F116011E00D493A
:100F80009031884204D10A490A4A121F116008E0D0
:100F90000849A831884204D14FF03D51054A121F3B
:100FA00011607047106002403D000020400F00209B
:100FB00000003D201064024021B1026842F020028E
:100FC000026003E0026822F020020260704710B560
:100FD00001F080034BB122B1436943F080034361C8
:100FE00003E0436923F08003436180290BD02AB1D9
:100FF000036801F01E042343036004E0036801F06A
:101000001E04A343036010BD10B500220268134BF9
:101010001A40CC680B6823434C6923438C692343F3
:10102000CC6923430C6A23434C6A23438C6A2343D1
:101030004C6B23438C6B23431A430260426922F0BA
:101040000702D1E90B3423431A4342610B69436021
:101050004B6883608B68C36010BD00003F801CF04C
:1010600070B500254FF0807400E0641E24B180202C
:1010700004F076FC0028F8D014B90325284670BD8A
:1010800040F2FF5004F028FC2846F8E72DE9F04133
:10109000064600274348056801E04248056805F018
:1010A00045000028F9D005F0040030B103270420E2
:1010B00004F012FC3846BDE8F08105F0010028B1CB
:1010C0000127012004F008FC3846F4E704F042FC54
:1010D000B04202D010273846EDE740F2FF5004F04E
:1010E000FBFB002004F05CFC04462F48204008B9BC
:1010F0003846E0E704F0004008B11C20DBE704F0CC
:10110000804008B10920D6E704F0005008B10A2059
:10111000D1E704F0805008B10B20CCE704F0006068
:1011200008B10C20C7E704F0806008B10D20C2E7C9
:1011300004F0807008B10E20BDE704F4000008B18F
:101140000F20B8E704F4800008B11020B3E704F4DE
:10115000001008B11120AEE704F4801008B112208D
:10116000A9E704F4002008B11320A4E704F48020C8
:1011700008B114209FE704F4003008B115209AE765
:1011800004F4804008B1182095E704F4005008B139
:10119000192090E704F0080008B11A208BE73846C0
:1011A00089E70000342C014008E0FFFD70B5002500
:1011B0001048046801E00F48046804F04500002866
:1011C000F9D004F0040028B10325042004F084FBC6
:1011D000284670BD04F0010028B10125012004F06B
:1011E0007BFB2846F5E740F2FF5004F075FB2846EC
:1011F000EFE70000342C014070B500250B4804686F
:1012000001E00A48046804F045000028F9D004F021
:10121000040028B10325042004F05EFB284670BDBD
:1012200040F2FF5004F058FB2846F8E7342C014008
:101230002DE9F04106460F464FF0000822480568A8
:1012400001E02148056805F045000028F9D005F0C7
:10125000040038B14FF00308042004F03DFB404681
:10126000BDE8F08105F0010030B14FF00108012028
:1012700004F032FB4046F3E704F06CFBB04203D0CD
:101280004FF010084046EBE740F2FF5004F024FB1B
:10129000002004F085FB044604F4604018B9200CDB
:1012A00038804046DCE704F4005008B11320D7E74B
:1012B00004F4804008B11020D2E704F4004008B1E3
:1012C0000F20CDE74046CBE7342C014070B50546F2
:1012D0002924002004F064FB00F0007010B10E24FB
:1012E000204670BD012D48D12A482B4908600620B0
:1012F0004860402088600020C860A8020861084655
:1013000004F08CFB0620FFF7C1FE04460CB120461A
:10131000E7E7642005F01EFE20481F49086006200C
:101320004860402088600020C8604FF480600861F9
:10133000084604F073FB0620FFF7A8FE04460CB134
:101340002046CEE7642005F005FE154812490860E6
:1013500006204860402088600020C8604FF480600C
:101360000861084604F05AFB0620FFF78FFE04468A
:101370000CB12046B5E72046B3E73720FFF786FEDD
:1013800004460CB12046ACE70CB12046A9E7204644
:10139000A7E700000008BB0358FD00200001B903C7
:1013A0000001B70370B504460025B4F5805F02D193
:1013B0002725284670BDB4F5006F14D10120FFF732
:1013C00085FF054605BB022010490875002008600E
:1013D000486088604FF40060C860002008610846DB
:1013E00004F0FEFA10E00020FFF770FF05465DB93B
:1013F0000220064908750020086048608860C860BF
:101400000861084604F0ECFA2846D3E740FD0020C6
:101410002DE9F04388B004460D4616461F460020CD
:101420000490059006900790009001900290039020
:1014300080460422314604A800F0F2F804F500705A
:1014400004A991E80E10C0E90B238162C4F834C2EC
:1014500095E80F008DE80F000098800F207000982D
:10146000C0F3836060700098C0F30160A0700098C2
:10147000000CE0700098000A2071009860710198DB
:10148000000DE0800198C0F3034020720198C0F382
:10149000C03060720198C0F38030A0720198C0F330
:1014A0004030E0720198C0F3003020730198C0F31F
:1014B0008120607301988005000D029940EA9170C7
:1014C000E0810298C0F3C26020740298C0F3026009
:1014D00060740298C0F34250A0740298C0F3824036
:1014E000E0740298C0F3C23020750298C0F38420E3
:1014F00060750298C0F34410A075029800F01F00B8
:10150000E0750398C00F20760398C0F341706076B1
:101510000398C0F38260A0760398C0F38350E0760E
:101520000398C0F3405020770398C0F3434060779E
:101530000398C0F30040A0770398C0F3C030E07771
:101540000398C0F3803084F820000398C0F3403043
:1015500084F821000398C0F3003084F82200039837
:10156000C0F3812084F823000398C0F3012084F89D
:1015700024000398C0F3460084F82500039800F087
:10158000010084F826001548007884F84602A4F883
:101590004472217A01208840C4F8400294F8FF0088
:1015A000010694F8FE0041EA004194F8FD0041EA8A
:1015B000002094F8FC100143CB17C446D4F8400235
:1015C000A1FB002903FB009001FB0C00C4F83822AA
:1015D000C4F83C02404608B0BDE8F0833C0100205E
:1015E00008B500200090684600F0A0FD08B1FF207B
:1015F00008BD0098C0F34320FAE710B50424FFF7B4
:10160000EFFF0446042C01D1002010BD062C01D1AF
:101610000020FAE7FF2C01D10220F6E70120F4E7D1
:10162000F0B503460024002016E051F820502D0E9E
:1016300011F8206045EA066551F820604FF47F07F5
:1016400007EA0626354351F820603F1207EA1626BE
:10165000354343F82050401C9042E6D32046F0BD6D
:1016600008B50020009000F09FFA00F0B7FA04F0EF
:1016700065F900F005FB00909DF8000010B19DF8A1
:10168000000008BD0C4800F023F800909DF8000011
:1016900010B19DF80000F4E79DF8000020B94FF468
:1016A0000060FFF77FFE00909DF8001003A004F09B
:1016B00025FB9DF80000E4E788FD0020656D6D6363
:1016C0002062757320696E69742025640D0A00001C
:1016D00030B589B00546002400200590069007909B
:1016E000089001900290039004900120009004F073
:1016F0004FF918B92524204609B030BD00205249C1
:10170000086002204860C02088600020C8604FF454
:1017100080600861084604F081F9FFF747FD044640
:101720002CB1214649A004F0E9FA2046E4E74CA098
:1017300004F0E4FA002004F033F90190042004F0EE
:101740002FF90290082004F02BF903900C2004F0EC
:1017500027F9049000203C4908600320486040209D
:1017600088600020C8604FF480600861084604F07B
:1017700055F969460320FFF75BFD04462CB121466D
:101780003AA004F0BBFA2046B6E73DA004F0B6FA52
:10179000BDF8000000042C49086009204860C02002
:1017A00088600020C8604FF480600861084604F03B
:1017B00035F9FFF7FBFC04462CB1214633A004F0B9
:1017C0009DFA204698E736A004F098FA002004F02D
:1017D000E7F80590042004F0E3F80690082004F0F0
:1017E000DFF807900C2004F0DBF808902F49B1F8DF
:1017F0004412080400F080FC04462CB121462CA0C1
:1018000004F07CFA204677E72FA004F077FA274807
:1018100000F03CFB04462CB121462FA004F06EFAE8
:10182000204669E732A004F069FABDF8003001AA49
:1018300005A92846FFF7ECFD04460CB120465BE7FE
:101840000024204658E7000058FD0020434D443254
:10185000204661696C65642025640D0A0000000063
:10186000434D4432204F4B0D0A000000434D44339A
:10187000204661696C65642025640D0A0000000043
:10188000434D4433204F4B0D0A000000434D443973
:10189000204661696C65643A2025640D0A000000E9
:1018A000434D4439204F4B0D0A00000088FD0020B5
:1018B00053446573656C656374204661696C656447
:1018C0003A2025640D0A000053446573656C656316
:1018D00074204F4B0D0A00005265616445787420F6
:1018E0004661696C65643A2025640D0A00000000B9
:1018F00052656164457874204F4B0D0A000000006A
:101900007CB5044600250020019000905A48B0F8AC
:1019100044020004594908600D2048604020886056
:101920000020C8604FF480600861084604F076F833
:1019300053480068009002E0514800680090009809
:1019400000F045000028F7D0009800F0040028B10E
:101950000325042003F0C0FF28467CBD009800F05A
:10196000010028B10125012003F0B6FF2846F4E765
:1019700003F0F0FF009000980D2802D010252846B3
:10198000EBE740F2FF5003F0A7FF002004F008F857
:1019900001900198C0F3432020703A490198084013
:1019A00008B92846D9E7019800F0004008B11C208A
:1019B000D3E7019800F0804008B10920CDE70198F5
:1019C00000F0005008B10A20C7E7019800F08050ED
:1019D00008B10B20C1E7019800F0006008B10C20AD
:1019E000BBE7019800F0806008B10D20B5E70198D1
:1019F00000F0807008B10E20AFE7019800F40000FD
:101A000008B10F20A9E7019800F4800008B1102068
:101A1000A3E7019800F4001008B111209DE7019898
:101A200000F4801008B1122097E7019800F400201C
:101A300008B1132091E7019800F4802008B1142028
:101A40008BE7019800F4003008B1152085E7019874
:101A500000F4804008B118207FE7019800F400509E
:101A600008B1192079E7019800F0080008B11A20A0
:101A700073E7284671E7000088FD002058FD00202C
:101A8000342C014008E0FFFD30B58FB004460D4610
:101A90004FF0FA511E48FFF7BDF900211C48FFF72F
:101AA000D3F91B48FFF7DCF94FF0006000901948AC
:101AB00001900294002003900120049000200590E2
:101AC0004FF480600690800007908000089000200E
:101AD00009904FF440300A9004200B9003200C90A2
:101AE0004FF400000D9080100E9069460848FFF7F3
:101AF0008BFA012210210648FFF769FA20210448D9
:101B0000FFF75AFA01210248FFF79EF90FB030BDE6
:101B100058640240802C014030B58FB005460C4619
:101B20004FF0FA511E48FFF775F900211C48FFF7E6
:101B30008BF91B48FFF794F94FF0006000901948AB
:101B400001900295402003900494002005904FF4EA
:101B50008060069080000790800008900020099027
:101B60004FF440300A9004200B9003200C904FF467
:101B700000000D9080100E9069460948FFF744FA66
:101B8000012210210648FFF722FA20210448FFF71E
:101B900013FA01210248FFF757F90FB030BD0000DA
:101BA00058640240802C014008B531208DF80000B7
:101BB00000208DF801008DF8020001208DF803004F
:101BC000684600F0ABFD3B208DF8000001208DF849
:101BD0000100684600F0A2FD08BD00001CB501210F
:101BE0000C2003F07BFD0C220821234800F0C2FCEE
:101BF0000C220921204800F0BDFC0C220A211E48BD
:101C000000F0B8FC0C220B211B4800F0B3FC0C22A6
:101C10001146194800F0AEFC0C220221174800F0D2
:101C2000A9FC4FF47060009002208DF805008DF83B
:101C3000040000208DF8060001208DF80700694699
:101C40000D4800F04FFC0420009069460B4800F05E
:101C500049FC4FF48050009000208DF80700694641
:101C6000054800F03FFC0121C80203F047FD0121B7
:101C7000880503F033FD1CBD00080240000C024043
:101C800038B5002000900024FF2037490875002057
:101C9000086048608860C8600861084603F0A0FEDC
:101CA000032003F0D1FE012003F022FE00202F4983
:101CB000086048608860C8604FF48060086108462A
:101CC00003F0ACFEFFF7CCF900909DF8000038B1AE
:101CD0009DF8001026A004F011F89DF8000038BD12
:101CE00028A004F00BF807202949086000BF294804
:101CF0001E49086001204860402088600020C860BC
:101D00004FF480600861084603F088FEFFF774FA1C
:101D10000090641CB4F5C87F03D29DF80000002831
:101D2000E5D1C82005F016F91A48104908600120CD
:101D30004860402088600020C8604FF480600861DF
:101D4000084603F06BFEFFF757FA00909DF800007D
:101D500020B19DF8001010A003F0D0FF13A003F0F5
:101D6000CDFF9DF80000BAE740FD002058FD00209F
:101D7000434D4430204661696C65642025640D0A3A
:101D800000000000434D4430204F4B0D0A0000007E
:101D90003C0100208080FF40434D44312046616972
:101DA0006C65642025640D0A00000000434D443139
:101DB000204F4B0D0A00000010B50748006800F0E6
:101DC000C05040B10120054908604FF0C25102489F
:101DD0005830FFF71FF810BD0064024034010020A6
:101DE00010B54FF4807003F0C7FD50B100202549B5
:101DF00008704FF4807003F075FD012022490860DF
:101E000037E0022003F0B8FD30B1022003F06AFD94
:101E100002201C4908702CE0082003F0ADFD30B111
:101E2000082003F05FFD04201649087021E02020FF
:101E300003F0A2FD30B1202003F054FD062011492B
:101E4000087016E0102003F097FD30B1102003F069
:101E500049FD05200B4908700BE04FF4007003F0BA
:101E60008BFD30B14FF4007003F03CFD07200549B5
:101E7000087000214CF23A3003F0A2FD01480078CE
:101E800010BD000038010020300100202DE9F04194
:101E900007460026002407F12805601E3E49086019
:101EA0004FF400704860902088600220C8600020D5
:101EB000086101204861084603F026FD00203749EB
:101EC000086008204860402088600020C8604FF407
:101ED00080600861084603F0A1FD0820FFF7D6F8EE
:101EE000064616B13046BDE8F0810EE04FF40040E2
:101EF00003F036FD48B1002404E003F089FD45F805
:101F00002400641C082CF8D320352548006840F2D2
:101F10002A6108400028E9D0082003F021FD28B1FB
:101F2000082003F0D9FC04263046DCE7022003F049
:101F300017FD28B1022003F0CFFC02263046D2E77D
:101F4000202003F00DFD28B1202003F0C5FC06265B
:101F50003046C8E74FF4007003F002FD30B14FF493
:101F6000007003F0B9FC07263046BCE74FF0FF34A1
:101F700004E003F04DFD28602D1D641E4FF4001099
:101F800003F0EEFC08B1002CF3D140F2FF5003F057
:101F9000A3FC3046A7E700006CFD002058FD0020A0
:101FA000342C01402DE9F04780460F4614461D466B
:101FB000002600204A4908704A49086001204A4921
:101FC00008604FF0000900BF00BFFEF7FDF8814632
:101FD00000BFFEF761FE00BF00204449086044488E
:101FE0000460102042494860402088600020C8609A
:101FF0004FF480600861084603F010FD1020FFF7E1
:1020000045F8064616B13046BDE8F0874FF0FF3080
:102010003849086005FB04F0486090208860022081
:10202000C860002008614861084603F06DFC4FF06D
:10203000FF303049086005FB04F04860902088605C
:102040000220C8600020086101204861084603F0B2
:102050005BFC2748076012202549486040208860C3
:102060000020C8604FF480600861084603F0D6FC89
:102070001220FFF70BF8064600BFFEF727FE00BF51
:102080004846FEF7A5F800BF00BF0EB13046BBE7DB
:1020900000BF00BFFEF798F8814600BFFEF7FCFDC9
:1020A00000BF012140F22A3003F08AFC05FB04F155
:1020B0004046FFF7E9FC012003F020FC00BFFEF7DB
:1020C00005FE00BF4846FEF783F800BF00BF00F0E2
:1020D00071F806460EB1304696E7304694E70000A8
:1020E00038010020300100202C0100202C2C014060
:1020F00058FD00206CFD002070B5044600250A48FC
:102100000460072008494860402088600020C860BB
:102110004FF480600861084603F080FC0720FEF75A
:10212000B5FF0546284670BD58FD002070B5044631
:10213000002514B92625284670BD0F48B0F8440282
:1021400000040E4908600D2048604020886000208F
:10215000C8604FF480600861084603F05FFC0D2002
:10216000FEF794FF05460DB12846E5E7002003F091
:1021700017FC20602846DFE788FD002058FD00207E
:1021800010B5002400200A4908600C204860402057
:1021900088600020C8604FF480600861084603F042
:1021A0003DFC0C20FEF772FF0446204610BD0000E7
:1021B00058FD002070B500256C1E002600E0641E4E
:1021C0002148006838B92148006820B920480078C3
:1021D00008B9002CF3D100201B490860441E00E020
:1021E000641E1C48006800F4005008B1002CF7D1B0
:1021F00019480068012817D100BF00BFFDF7E4FFB0
:10220000064600BFFEF748FD00BFFFF7B9FF0546D1
:1022100000BFFEF75BFD00BF3046FDF7D9FF00BFF2
:1022200000BF00200C4908600CB905B9042540F234
:10223000FF5003F051FB0648007810B104480078C5
:1022400070BD2846FCE7000034010020300100206A
:1022500038010020342C01402C01002070B50025ED
:102260006C1E00E0641E1348006838B9124800680C
:1022700020B91248007808B9002CF3D100200D498C
:102280000860441E00E0641E0D48006800F48050A1
:1022900008B1002CF7D140F2FF5003F01DFB0CB940
:1022A00005B904250548007810B10448007870BDD0
:1022B0002846FCE7340100203001002038010020CE
:1022C000342C01402DE9F84F8246884615461E46BB
:1022D0000024A1460020009083467D4908707D4976
:1022E00008607D49086000BF00BFFDF76DFF8346B1
:1022F00000BFFEF7D1FC00BF784805601020774989
:102300004860402088600020C8604FF48060086109
:10231000084603F083FB1020FEF7B8FE044614B114
:102320002046BDE8F88F6D48066017206B4948606D
:10233000402088600020C8604FF480600861084633
:1023400003F06CFB1720FEF7A1FE04460CB12046FB
:10235000E7E76248C0F800801920604948604020E3
:1023600088600020C8604FF480600861084603F070
:1023700055FB1920FEF78AFE04460CB12046D0E733
:102380004FF0FF305649086006FB05F0486090208A
:1023900088600020C86008614861084603F0B4FA0C
:1023A0004FF0FF304E49086006FB05F04860902072
:1023B00088600020C860086101204861084603F079
:1023C000A3FA00BFFEF782FC00BF5846FDF700FFEE
:1023D00000BF00BF00BF00BF00BFFDF7F5FE834692
:1023E00000BFFEF759FC00BFFFF707F9074600BF23
:1023F000FEF76CFC00BF5846FDF7EAFE00BF00BFC9
:10240000002FE8D100BF00BFFDF7DEFE834600BF0E
:10241000FEF742FC00BF012140F22A3003F0D0FA5F
:10242000012003F06BFA06FB05F15046FFF774FB41
:1024300000BFFEF74BFC00BF5846FDF7C9FE00BFCA
:1024400000BFFFF70BFF04460CB1204669E700BF51
:1024500000BFFDF7B9FE834600BFFEF71DFC00BFBD
:102460006846FFF74DFA044600BFFEF72FFC00BF99
:102470005846FDF7ADFE00BF00BF1EE000BF00BF25
:10248000FDF7A2FE834600BFFEF706FC00BF6846CC
:10249000FFF736FA044600BFFEF718FC00BF5846A7
:1024A000FDF796FE00BF00BF4FF0000901E009F103
:1024B000010942F210708145F9D33CB99DF8000042
:1024C0000728DBD09DF800000628D7D0204628E753
:1024D00038010020300100202C2C014058FD002044
:1024E0006CFD0020F0B50A4600210023002400BF47
:1024F0003DE0012505FA01F3156805EA03049C4255
:1025000034D105684F000326BE40B54305601579F8
:102510004E00B5400668354305601579012D02D09F
:102520001579022D16D185684F000326BE40B543AC
:10253000856055794E00B5408668354385604568AD
:1025400001268E40B5434560456896798E40B6B207
:1025500035434560C5684F000326BE40B543C5609E
:10256000D5794E00B540C6683543C560491C102971
:10257000BFD3F0BDF0B5002300244D07ED0E02FAE5
:1025800005F3CE1000F1200555F826504E07F70E42
:102590000F26BE40B543CF1000F1200646F8275065
:1025A000CE1000F1200555F8265045EA0304CE1060
:1025B00000F1200545F82640F0BD10B5012000F0DF
:1025C00001F810BD70B50446002500BF00BFFDF73F
:1025D000FBFD054600BFFEF75FFB00BF054804603A
:1025E00000BFFEF773FB00BF2846FDF7F1FD00BFFB
:1025F00000BF70BD6000002030B505460C46224685
:102600000021284600F060F830BD00003EB50020F3
:102610000B4908600B4C02A801218B022246CDE930
:102620000010094909A000F015F8BDF8080042F2B1
:102630001071884203D000BFFEF792FB00BF3EBD81
:10264000640000200CE500200CE900204865617062
:10265000000000002DE9F84F05460E4617461C46BF
:10266000DDE90A894FF0000A00BF00BFFDF7ACFDAD
:10267000824600BFFEF710FB00BF43463A46314694
:102680002846009400F010F800BFFEF71FFB00BFC3
:102690005046FDF79DFD00BF00BF42F21070A9F843
:1026A0000000BDE8F88F000030B5039C0A60651E8D
:1026B00015444D608A60034D2D68CD600B61014D5E
:1026C000296030BD640000202DE9F04105460B462D
:1026D00094460027002402E03F021F43641C042CA0
:1026E000FAD3604605F00306294646B1344603E0B6
:1026F00001F8013B401E641C08B1042CF8D30A46C3
:1027000001E080C2001F0428FBD2114602E001F85C
:10271000013B401E0028FAD1BDE8F08170B50021D0
:1027200000230F22C4781CB3174C246804F4E0641F
:10273000C4F5E064C4F30721C1F10404E3B20A4123
:1027400044789C40E1B28478144021430C07210E68
:102750000E4C05786155047804F01F050124AC4047
:1027600005786D11AD0005F1E025C5F8004109E0DF
:10277000047804F01F050124AC40054D067876115D
:1027800045F8264070BD00000CED00E000E400E0DC
:1027900080E100E002490143024A116070470000F5
:1027A0000000FA050CED00E07047000010B503488A
:1027B000006810B101480068804710BD7800002013
:1027C00070B5044600F0A2F800203E4908703E496A
:1027D00008703E4908703E4908603E4908603E491D
:1027E00008703E4908703E4908703E48006858B17C
:1027F0003D48056845B13B48066803E0761E002069
:1028000028602D1D002EF9D1002038490860384974
:102810000860384908603849086038490860384914
:102820000860384908603849087001F0D7FD01F0A8
:1028300011FE204601F02CFB208800B170BD20461F
:1028400001F090FB208800B1F8E7204601F096FBEC
:10285000208800B1F2E7204601F006FC208800B194
:10286000ECE7204601F0EAFD208800B1E6E72046CB
:1028700001F084FE208800B1E0E7204602F026F94E
:10288000208800B1DAE7204601F034FB208800B14F
:10289000D4E7204602F0A2FD208800B1CEE7204612
:1028A00002F00AF8208800B1C8E7204602F0FAFDDD
:1028B000208800B1C2E701F017FAFFF775FF00BFEB
:1028C000BCE700008C00002094000020BA0000202B
:1028D0002001002024010020AE000020AF000020D5
:1028E000B0000020109000080C9000086C00002040
:1028F0007000002074000020780000207C00002080
:102900008000002084000020E600002006480068C7
:102910000649096800EB810005490860084600681F
:1029200020F00700086070470C9000081090000825
:102930002801002010B500242D480078012800D07F
:1029400010BD00BFFDF740FC044600BF29480078D9
:1029500028B900BF2046FDF73BFC00BFF0E7254843
:102960000078401E2349087008460078002805DDDD
:1029700000BF2046FDF72CFC00BFE1E71E480078B1
:10298000002805DD00BF2046FDF722FC00BFD7E789
:1029900001F010FD194908700846007800EB40006E
:1029A000174951F820001749086008460068164981
:1029B0000968884205D100BF2046FDF709FC00BF29
:1029C000BEE710480068D0F88C00401C0D4909682B
:1029D000C1F88C000D480068401C0C490860FDF7E8
:1029E00084FF00BF2046FDF7F3FB00BF00BFA7E751
:1029F000940000208C000020BA000020AF000020CE
:102A00004CF900202401002020010020DC000020DF
:102A10002DE9F04104460D461646002700BF00BFD1
:102A2000FDF7D2FB074600BFFEF736F900BF11489D
:102A30002060656000202062606284F82800E06207
:102A400004F1080001F0C1FB204601F0CDFA0A486C
:102A50000088401C0849088000BFFEF737F900BF16
:102A60003846FDF7B5FB00BF00BF00203080BDE851
:102A7000F08100004D555458AC0000202DE9F0477E
:102A800088B00546884691461C46109E4FF0000AC5
:102A900072492868884205D045F6C450308008B095
:102AA000BDE8F0870CB10020206000BF00BFFDF73B
:102AB0008BFB824600BFFEF7EFF800BF95F82800B9
:102AC000C8B9674800686862012085F828000CB121
:102AD000E86A206029466248006801F09DFA00BF5C
:102AE000FEF7F4F800BF5046FDF772FB00BF00BFD1
:102AF00000203080D3E75A49686A0968884225D1A6
:102B000095F82800FF280CD100BFFEF7DFF800BFC2
:102B10005046FDF75DFB00BF00BF45F2847030807A
:102B2000BDE795F82800401C85F828000CB1E86A3C
:102B3000206000BFFEF7CAF800BF5046FDF748FB13
:102B400000BF00BF45F282703080A8E709F4004062
:102B500060B100BFFEF7BAF800BF5046FDF738FB82
:102B600000BF00BF46F2B010308098E73D480078C3
:102B700000280CDD00BFFEF7A9F800BF5046FDF7A6
:102B800027FB00BF00BF46F66350308087E76F6ABF
:102B900097F837003249096891F83710884206DD06
:102BA0002F48006890F83710384601F001FF43467F
:102BB00004222946684601F063FA00BFFEF786F852
:102BC00000BF5046FDF704FB00BF00BF00F00AF94C
:102BD00000BF00BFFDF7F8FA824600BFFEF75CF8C1
:102BE00000BF1F48006890F8350030B101280CD0B4
:102BF00002281AD0032821D110E01CB1184800681F
:102C0000806C2060002030801CE01CB114480068FB
:102C1000806C206046F2A910308013E00CB10020D7
:102C2000206047F2D92030800CE01CB10C480068CD
:102C3000806C206045F6C250308003E046F62E607E
:102C4000308000BF00BF00BFFEF740F800BF504615
:102C5000FDF7BEFA00BF00BF00BF20E74D55545836
:102C600020010020BA0000202DE9F84F04468A46D2
:102C700015464FF0000B58492068884204D045F6AD
:102C8000C4502880BDE8F88F00BF00BFFDF79CFA54
:102C9000834600BFFEF700F800BF5049606A09682C
:102CA00088420CD000BFFEF711F800BF5846FDF770
:102CB0008FFA00BF00BF45F281702880E2E7FEF77F
:102CC0009FF880462834C4F804802078401E207085
:102CD00014F8280900280CDD00BFFDF7F7FF00BF3E
:102CE0005846FDF775FA00BF00BF45F28370288093
:102CF000C8E721463948006801F0A8F904F108093D
:102D0000B9F8080078B90020606284F8280000BF94
:102D1000FDF7DCFF00BF5846FDF75AFA00BF00BFC1
:102D200000202880AEE72D48006890F837002B4936
:102D3000096891F83810884228D02848006801F0C6
:102D40006FF906462548006890F83810B14204DA59
:102D50002248006890F8380000E0304606461F48D8
:102D6000006890F83700B04210DA1C48006801F0A3
:102D7000D7FB1A48006880F83760304601F03AFB0C
:102D80001648006801F0AEFB15480670D9F800003F
:102D900087686762012084F828002146384601F0E0
:102DA0003BF900231A4639462046CDF8008001F051
:102DB0007FFA00BFFDF78AFF00BF5846FDF708FA0B
:102DC00000BF00BF0AF4004008B900F00BF8002073
:102DD000288000BF56E700004D55545820010020C0
:102DE000AE00002010B5002420480078002800DD47
:102DF00010BD1F480078002800DDF9E700BFFDF78F
:102E0000E3F9044600BF01F0D5FA1A4908700846F4
:102E1000007800EB4000184951F82000174908607D
:102E20000846006816490968884205D100BF204657
:102E3000FDF7CEF900BFDBE710480068D0F88C0042
:102E4000401C0E490968C1F88C000E480068401CFF
:102E50000C490860FDF744FD00BF2046FDF7B8F9B6
:102E600000BFBFF36F8F00BFC2E700008C000020DF
:102E7000BA000020AF0000204CF9002024010020FF
:102E800020010020DC00002070B504460025154814
:102E90000078012803D045F68960208070BD124873
:102EA0000078FA2803DB45F209202080F6E700BF0E
:102EB00000BFFDF789F9054600BFFDF7EDFE00BF35
:102EC00009480078401C0849087000BFFDF7FEFE65
:102ED00000BF2846FDF77CF900BF00BF002020801E
:102EE00000BFDBE794000020BA00002070B5044664
:102EF00000251E480078012803D045F6896020800F
:102F000070BD1B48007818B946F664502080F7E77A
:102F100000BF00BFFDF758F9054600BFFDF7BCFE36
:102F200000BF13480078401E114908700846007819
:102F300000280CDD00BFFDF7C9FE00BF2846FDF7E5
:102F400047F900BF00BF46F663502080D8E700BFB6
:102F5000FDF7BCFE00BF2846FDF73AF900BF00BFF1
:102F6000FFF740FF0020208000BFC9E79400002049
:102F7000BA00002010B5044612480078E8B901F004
:102F800019FA1149087008460078104908700E486F
:102F9000007800EB40000E4951F820000D49086010
:102FA000084600680C490860012006490870FDF7D2
:102FB00059FC43F69920208002E045F68A60208083
:102FC00010BD000094000020AF000020AE000020E3
:102FD0004CF9002024010020200100202DE9F041BF
:102FE00007464FF0000800BF00BFFDF7EDF8804630
:102FF00000BFFDF751FE00BF002042490880424952
:1030000008604249086042490860424908604249F4
:10301000088100BFFDF75AFE00BF4046FDF7D8F813
:1030200000BF00BF00BF00BFFDF7CEF8804600BF65
:10303000FDF732FE00BF3948046800BFFDF746FEC9
:1030400000BF4046FDF7C4F800BF00BF25E000BF49
:1030500000BFFDF7B9F8804600BFFDF71DFE00BFB9
:1030600000207434E06320602063A061A082E082CD
:103070006062A062FDF7C4FE2062743C04F1600649
:103080000020B081D4F8B84000BFFDF71FFE00BF9C
:103090004046FDF79DF800BF00BF002CD7D100BF10
:1030A00000BFFDF791F8804600BFFDF7F5FD00BFBA
:1030B0001B48056800BFFDF709FE00BF4046FDF74D
:1030C00087F800BF00BF16E000BF00BFFDF77CF827
:1030D000804600BFFDF7E0FD00BF05F1200600209F
:1030E000B081AD6900BFFDF7F1FD00BF4046FDF7BF
:1030F0006FF800BF00BF002DE6D100203880BDE88A
:10310000F0810000C6000020D8000020EC00002064
:10311000100100209000002040F90020E000002075
:10312000B4000020F8B5044600266946364800F091
:103130000FFCBDF8000018B1BDF800002080F8BDFC
:103140006A460021022000F06BFCBDF8000018B1B7
:10315000BDF800002080F2E700BF00BFFDF734F8A3
:10316000064600BFFDF798FD00BF00202749086014
:1031700000BFFDF7ABFD00BF3046FDF729F800BFEB
:1031800000BF00252248006822490968884205D905
:103190001F4800681F490968B0FBF1F525B91C48B4
:1031A00000680A21B0FBF1F56A460021284600F0CC
:1031B00037FC6946144800F0EDF8BDF8000018B17E
:1031C000BDF800002080BAE700BF00BFFCF7FCFF9D
:1031D000064600BFFDF760FD00BF00200E490860F5
:1031E0000A4800680D49086001200D49087000BFB9
:1031F000FDF76CFD00BF3046FCF7EAFF00BF00BFE3
:103200000020208000BF9AE77CFC0020C80000203E
:103210004090000828900008D8000020CC00002032
:10322000D400002010B50348006810B101480068C0
:10323000804710BD7C0000202DE9FF4F85B004467B
:103240009146DDF854B0DDE912A5199E00200290E8
:10325000BAF11F0F09D14648844206D046F27321C5
:103260001A98018009B0BDE8F08F204601F03EFCBD
:1032700000211A98018006F0010088B106F00200D2
:1032800070B1A8460020049007E00020C8F80000B4
:1032900008F104080498401C049004985845F4D39D
:1032A000149805EB80000390CDE900B62A46484605
:1032B000039B089900F0EAF98046C4F82890089822
:1032C000E0620698206284F837A084F838A0C4F839
:1032D00000800398A060189860606562C4F840B0F0
:1032E000A4F84460002706E0002104F1780040F8CB
:1032F0002710781CC7B2002FF6D004F16000169991
:1033000000F06AFE204600F039F800BF00BFFCF76D
:103310005BFF029000BFFDF7BFFC00BF94F83700D1
:1033200001F068F8204601F0DDF8204601F0B6FB18
:1033300010480088401C0F4908800F480078012879
:1033400009D000BFFDF7C2FC00BF0298FCF740FFA8
:1033500000BF00BF86E700BFFDF7B8FC00BF0298C2
:10336000FCF736FF00BF00BFFFF73CFD00BF79E769
:1033700080F80020E40000209400002010B50446EE
:103380000348006818B1204601490968884710BD04
:103390006C00002070B504460D46002600BF00BF3B
:1033A000FCF712FF064600BFFDF776FC00BF00BF2A
:1033B000FDF78CFC00BF3046FCF70AFF00BF00BFE2
:1033C0002946204601F0F4FB70BD000010B504460C
:1033D0000348006818B1204601490968884710BDB4
:1033E000740000202DE9F0470746884614461D4624
:1033F0004FF000090CB10020206000BF00BFFCF7B7
:10340000E3FE814600BFFDF747FC00BF654800684A
:10341000C06CC0B363480068C06C401E6149096855
:10342000C86460480068C66C1CB15E480068806C67
:103430002060FDF7E5FC5B490968896C401A594931
:103440000968C1F8A00057480068D0F8A4005549A1
:103450000968D1F8A010884207D252480068D0F815
:10346000A00050490968C1F8A40000BFFDF72EFC78
:1034700000BF4846FCF7ACFE00BF00BF002028801C
:103480003046BDE8F087FFE708F4004068B100BFB0
:10349000FDF71CFC00BF4846FCF79AFE00BF00BFCA
:1034A00046F2B01028800020EBE73F480078002863
:1034B0000DDD00BFFDF70AFC00BF4846FCF788FEA3
:1034C00000BF00BF46F6635028800020D9E73B4686
:1034D00007220021084600F0D3FD00BFFDF7F6FBF0
:1034E00000BF4846FCF774FE00BF00BFFFF77AFC40
:1034F00000BF00BFFCF768FE814600BFFDF7CCFBB4
:1035000000BF2848006890F8350020B1012826D077
:10351000032834D12CE0FCB122480068806C206084
:10352000FDF76EFC1F490968896C401A1D4909683E
:10353000C1F8A0001B480068D0F8A4001949096828
:10354000D1F8A010884207D216480068D0F8A00031
:1035500014490968C1F8A4000020288013E01CB1B8
:1035600010480068806C206046F2A91028800AE0AC
:103570000CB10020206047F2D920288003E046F6F5
:103580002E60288000BF00BF06480068C66C00BFE0
:10359000FDF79CFB00BF4846FCF71AFE00BF00BFCA
:1035A00030466EE720010020BA0000202DE9F041EE
:1035B00005460E461446FDF723FC80462346424648
:1035C0003146284601F094FB07463846BDE8F081B5
:1035D0002DE9F04704460D4616461F464FF0000AF7
:1035E00000BF00BFFCF7F0FD824600BFFDF754FBB3
:1035F00000BF0CB924480468206880B900BFFDF7FB
:1036000065FB00BF5046FCF7E3FD00BF00BF002094
:103610002860306047F252103880BDE8F08794F897
:10362000440000F0010078B900BFFDF74FFB00BF78
:103630005046FCF7CDFD00BF00BF00202860306081
:1036400047F254103880E8E700BFFDF73FFB00BFAA
:103650005046FCF7BDFD00BF00BF4FF00008D4F896
:10366000249003E009F1040908F10108D9F80000E9
:103670000028F7D0C5F80080206CA0EB080030606F
:103680000020388000BFC8E720010020F0B50446C4
:10369000DDE9055602EB850020F007004FF0807C45
:1036A000071F3846C7F800C0071F38463C60DFF8E0
:1036B00034C2071F3846C7F800C04FF0123C071F3E
:1036C0003846C7F800C04FF0033C071F3846C7F81C
:1036D00000C04FF0023C071F3846C7F800C0071F64
:1036E00038463B60071F384639604FF0113C071FD2
:1036F0003846C7F800C04FF0103C071F3846C7F8DF
:1037000000C04FF0093C071F3846C7F800C04FF013
:10371000083C071F3846C7F800C04FF0073C071F9A
:103720003846C7F800C04FF0063C071F3846C7F8B8
:1037300000C04FF0053C071F3846C7F800C04FF0E7
:10374000043C071F3846C7F800C006F00407002FE6
:103750007ED04FF0007C071F3846C7F800C0DFF866
:1037600088C1071F3846C7F800C0DFF880C1071FAF
:103770003846C7F800C0DFF878C1071F3846C7F8D9
:1037800000C0DFF870C1071F3846C7F800C0DFF877
:1037900068C1071F3846C7F800C0DFF860C1071FBF
:1037A0003846C7F800C0DFF858C1071F3846C7F8C9
:1037B00000C0DFF850C1071F3846C7F800C0DFF867
:1037C00048C1071F3846C7F800C0DFF840C1071FCF
:1037D0003846C7F800C0DFF838C1071F3846C7F8B9
:1037E00000C0DFF830C1071F3846C7F800C0DFF857
:1037F00028C1071F3846C7F800C0DFF820C1071FDF
:103800003846C7F800C0DFF818C1071F3846C7F8A8
:1038100000C04FF0834C071F3846C7F800C0DFF8E0
:1038200004C1071F3846C7F800C0DFF8FCC0071FF7
:103830003846C7F800C0DFF8F4C0071F3846C7F89D
:1038400000C0DFF8ECC0071F3846C7F800C000E032
:1038500047E0DFF8E0C0071F3846C7F800C0DFF8D0
:10386000D8C0071F3846C7F800C0DFF8D0C0071F10
:103870003846C7F800C04FF0824C071F3846C7F8DB
:1038800000C0DFF8BCC0071F3846C7F800C0DFF82B
:10389000B4C0071F3846C7F800C0DFF8ACC0071F28
:1038A0003846C7F800C04FF0814C071F3846C7F8AC
:1038B00000C0DFF898C0071F3846C7F800C04FF0B7
:1038C000804C071F3846C7F800C04FF07E5C071FCA
:1038D0003846C7F800C04FF0000C071F3846C7F83D
:1038E00000C0F0BDCD4C00080000F8410000F041E0
:1038F0000000E8410000E0410000D8410000D04154
:103900000000C8410000C0410000B8410000B041C3
:103910000000A8410000A041000098410000904133
:1039200000008841000070410000604100005041EB
:1039300000004041000030410000204100001041E3
:103940000000E0400000C0400000A04000004040F7
:1039500070B505460C460648854203D147F25B1018
:10396000208070BD2146284601F0BAFA00BFF8E772
:1039700080F8002070B52748006890F8440000F0F7
:10398000040020B1234909680868FCF755FF224864
:10399000006890F8440000F0040020B11E49096856
:1039A0000868FCF756FF1D48006810B11B48006806
:1039B0008047FDF725FA044616480068164909684D
:1039C000884215D013480068D0F89400201A114995
:1039D0000968C1F890000F480068D0F898000D49B8
:1039E0000968D1F8901008440A490968C1F898009C
:1039F00009480068C0F89440FDF722F905460548DB
:103A00000068D0F8B000A84203D202480068C0F8AD
:103A1000B05070BD20010020240100208000002053
:103A20002DE9F04105460E46144600272648007849
:103A3000002804DD46F663502080BDE8F08136B1F1
:103A4000022E05D0042E0AD0082E09D101E000BFB5
:103A500000BF1DB947F27E202080EEE704E003E0BE
:103A600045F625602080E8E700BF00BF00BFFCF7F7
:103A7000ABFB074600BFFDF70FF900BF23463246F8
:103A800029461248006801F00BFB208848B100BFAE
:103A9000FDF71CF900BF3846FCF79AFB00BF00BFDA
:103AA000CBE70A48006800F03BFD00BFFDF70EF9C8
:103AB00000BF3846FCF78CFB00BF00BFFFF792F950
:103AC0000020208000BFB8E7BA00002020010020BD
:103AD0002DE9F84F06460F46904699460B9C00206C
:103AE00000903D480078002804DD46F663502080B1
:103AF000BDE8F88F0A9800F00E0ABAF1000F09D05D
:103B0000BAF1020F07D0BAF1040F12D0BAF1080FC0
:103B100010D101E000BF00BFB9F1000F08D1B8F12A
:103B2000000F05D127B91EB947F27E202080DFE7BC
:103B300004E003E045F625602080D9E700BF274870
:103B400005684FF4FA70B0FBF5F0484468434FF451
:103B50007A71B0FBF1F14FF461607043C7EB07126B
:103B600000EB8200404400FB051BBBF1000F2DD091
:103B700000BF00BFFCF728FB009000BFFDF78CF8EA
:103B800000BF2346524659461548006801F088FA9E
:103B9000208848B100BFFDF799F800BF0098FCF7F6
:103BA00017FB00BF00BFA3E70D48006800F0B8FC9A
:103BB00000BFFDF78BF800BF0098FCF709FB00BFC2
:103BC00000BFFFF70FF90020208002E047F27E20BF
:103BD000208000BF8CE70000BA0000204090000861
:103BE0002001002070B50446002600BF00BFFCF78E
:103BF000EBFA064600BFFDF74FF800BF074805681F
:103C000000BFFDF763F800BF3046FCF7E1FA00BFE4
:103C100000BF00202080284670BD0000E800002082
:103C200008B500F01FF86A4600210A48FFF7BEFCFD
:103C300009480068401E084908600846006838B90D
:103C40000648006808606A4600210548FFF7AEFC98
:103C500008BD00008CFB00201C0100201801002082
:103C60007CFC002010B50348006810B101480068D2
:103C7000804710BD8400002010B5002400BF00BFA5
:103C8000FCF7A2FA044600BFFDF706F800BF09489A
:103C90000078401C0749087000BFFDF717F800BF07
:103CA0002046FCF795FA00BF00BFFFF7B9FFFEF70B
:103CB00041FE10BD8C00002001464A1E4FF0E0235B
:103CC0005A61084A106820F07F4000BF10601A4611
:103CD000126942F005021A611A46126942F00202A4
:103CE0001A61704720ED00E0244A2549254A264AFA
:103CF0002649274A2748284A284A294A294A2A4839
:103D00002A482B4A2B482C4A2C482D4A2D482E480D
:103D10002E482F482F4A304A304A3148314A324AD9
:103D20003248334833483448344835483548364AB1
:103D3000364A374A374A384838483948394A3A4A79
:103D40003A4A3B483B483C483C493D483D4A3E4A4C
:103D50003E4A3F4A3F4A404A404A4148414A424A15
:103D600042484348434A444A4448454A454A4648EB
:103D7000464800BF00BF00BF7047000074900008B5
:103D8000DC91000875900008769000087890000893
:103D90007C900008809000087D900008A8900008A2
:103DA000A9900008AA900008AC900008AE90000806
:103DB000B2900008B4900008D4900008D690000893
:103DC000D8900008DA900008DC900008DE90000827
:103DD000E09000081091000811910008129100086D
:103DE0001491000816910008179100081891000816
:103DF0001A9100081C9100081E91000820910008EB
:103E0000229100082491000854910008559100085F
:103E10005691000857910008589100085A910008DF
:103E20005C91000884910008859100088691000843
:103E300087910008889100088A9100088C910008F9
:103E400090910008919100089291000893910008C8
:103E500094910008959100089691000897910008A8
:103E6000989100089A9100089B9100089C91000885
:103E70009E910008A0910008A1910008A49100085B
:103E8000D4910008D5910008D6910008D891000877
:103E90000021034A1160034A11800180704700002D
:103EA000980000209C00002000241DE000BF00BFFF
:103EB000FCF78AF9044600BFFCF7EEFE00BF0B4892
:103EC0000068401C0949086009480068401C08490E
:103ED000086000BFFCF7FAFE00BF2046FCF778F947
:103EE00000BF00BFFEF762FCE0E700008800002092
:103EF000C800002010B58AB0044600200E490860B2
:103F00000B2000210591CDE90704069108460B49D5
:103F100009680B4A12680B4B1B68CDE90132CDE9E9
:103F200003101F200023084A08A100900C48FFF747
:103F300083F90AB010BD000088000020E88F000857
:103F4000E48F0008E08F0008A93E000875432F4F5A
:103F5000532D4949492049646C65205461736B00B5
:103F600080F800200021034A1160034A118001807B
:103F700070470000A0000020A400002070B5024699
:103F8000124D286829681031114D2D886D1EACB274
:103F9000002308E00160002545600581C560103000
:103FA00010315D1CABB2A342F4DB00250560456017
:103FB0000581C560054D2D68064E3560044D2D8880
:103FC000B5800025F5803581158070BD20900008F2
:103FD0001890000840F9002001810022428182816E
:103FE000026042607047000009A1C1610021416187
:103FF0000849096811B90021816105E0054909688E
:1040000081610449096848610249086070470000FD
:1040100020000000A8000020C26B0A62C163704744
:1040200030B504461F2004F13C010BE00D68AB687D
:104030002BB19D6895F83720824200DA10460D6852
:1040400005F120010D68002DF0D130BD024602F1CE
:104050003C0002E0036803F1200003688B42F9D1C1
:1040600003681B6A036070470021034A1160034A1A
:104070001180018070470000A8000020AC000020E3
:104080002DE9F04105460C4616461F4615480068C6
:1040900080F8346000201349096881F835003946FA
:1040A0001048006800F06EFC6CB104F10808EC6088
:1040B000012229460B48006800F016F829464046C0
:1040C00000F088F807E0002006490968A1F84600DA
:1040D00004490968086303480168204600F018F89D
:1040E000BDE8F0812001002010B5A0F84620016352
:1040F00000230AE000244C600C600C614C610C83CE
:10410000CC61886020315C1CA3B29342F2DB10BD0D
:1041100030B548B14568C1F8BC5000F108042268C8
:1041200093681D6AC56113E091F83450022D02D0E6
:10413000072D08D103E007A5C1F8BC5007E007A58B
:10414000C1F8BC5003E008A5C1F8BC5000BF00BFD7
:1041500030BD00005461736B205100005461736BDB
:104160002053656D000000002000000030B507A559
:10417000C1F8BC5000F1080422681AB193681D6AA6
:10418000C56101E001A5C56130BD0000200000004F
:104190002DE9F0410446256BB4F8467011E0D5F8DE
:1041A0000C8008F108063089012807D929463046D5
:1041B00000F05DF82946304600F00CF82035781EF6
:1041C00087B2002FEBD1BDE8F08100210160416092
:1041D00001817047F0B58E6896F8375007893FB96E
:1041E0000127078100274F600F600160416023E0D5
:1041F00007897F1C0781026806E0946894F837708D
:10420000AF4200DD02E05268002AF6D100BF32B9A9
:1042100000274F6043680B60596041600CE01768ED
:104220002FB9116000270F604A60016004E0136835
:104230000B604A6059601160F0BD2DE9F041044601
:10424000256BB4F846600AE0D5F80C8008F1080741
:104250002946384600F00BF82035701E86B2002E35
:10426000F2DC0020A4F846002063BDE8F08110B520
:104270000489012C03D100240460446011E00C681F
:1042800024B94A680024146002600AE04C6824B92A
:104290000B6800245C60436003E00B684A685A6066
:1042A00013600489641E048100244C600C6010BDFE
:1042B0002DE9F84306460C4617469846089D94F8A3
:1042C000360008285BD2DFE800F00405080906077D
:1042D000323300BF00BF00BF52E000BF94F834008B
:1042E000032807D143463A4621463046009500F060
:1042F0004AF803E0A765A4F85C80A56436B12046BF
:10430000FFF79BFF21463046FFF730FF94F8360059
:10431000032802D1204600F021FF204600F0ACF82F
:1043200000203434A070607004F8340928E000BF25
:1043300094F83400032807D143463A4621463046D4
:10434000009500F020F803E0A765A4F85C80A56460
:1043500036B12046FFF771FF21463046FFF706FFD2
:1043600094F83600072802D1204600F0F7FE04201A
:104370003434A0700020607004F8340900E000BFFD
:1043800000BFBDE8F883F0B50446059E086BB1F8A0
:1043900046500AE0C768A74204D104614261038322
:1043A000C66104E020306F1EBDB2002DF2DC00BFFC
:1043B000F0BD000070B50025074C03E005F12000BA
:1043C000C5B2241D20680028F8D02068FBF707FF3D
:1043D0002844C5B2284670BD68000020002004E0D3
:1043E0000021034A42F82010401C0028F8D07047F2
:1043F0006800002030B5420900F01F030121C3F11D
:104400001F04A140034C54F822400C43014D45F8D1
:10441000224030BD6800002030B5420900F01F0383
:104420000121C3F11F04A140034C54F822408C43E6
:10443000014D45F8224030BD680000200021034AAC
:104440001160034A1180018070470000B400002011
:10445000B800002000210AE001EB4102054B03EB0C
:10446000820000220281026042604A1CD1B22029EF
:10447000F2D370474CF9002010B5044694F8370089
:10448000FFF7B8FF94F8370005490978884203D14F
:10449000204600F027F802E0204600F003F810BDA7
:1044A000AE00002010B590F8373003EB43030C4CFE
:1044B00004EB83010B893BB901230B810023C3600B
:1044C00003610860486009E00B895B1C0B810B6885
:1044D000C360002303610A681061086010BD00001A
:1044E0004CF9002010B590F8373003EB43030B4C28
:1044F00004EB83010B893BB901230B810023C360CB
:1045000003610860486008E00B895B1C0B81002395
:10451000C3604A680261D060486010BD4CF9002059
:104520002DE9F041054695F8370000EB40001249AF
:1045300001EB80042F69EE6887B946B9002020811D
:104540002060606095F83700FFF766FF0EE0208975
:10455000401E208100203061266007E02089401E37
:104560002081FE600EB9676000E03761002028619D
:10457000E860BDE8F08100004CF900200021034A0A
:104580001160034A1180018070470000BC000020C8
:10459000C000002086B00020009006E0B6490968FF
:1045A000480001AA0021FFF73BFAB448007801282F
:1045B000F4D101A8FEF712FD0027B1480068AE490A
:1045C0000968884205D9AE480068AB490968B0FB64
:1045D000F1F727B9AA4800680A21B0FBF1F749E1D1
:1045E000FCF70EFC8246FCF741FBA649086000BFC1
:1045F00000BFFBF7E9FD009000BFFCF74DFB00BFDB
:10460000A1480068A149086000209F49086000BFD8
:10461000FCF75CFB00BF0098FBF7DAFD00BF00BFB2
:104620009B48006899490968884248D998480068B9
:104630009849884205D242F21070039001200290FE
:1046400023E0934800689449884205D24FF47A7079
:1046500003900A20029018E08D4800688F49884234
:1046600003D26420039002900FE0894800688C49CF
:10467000884205D20A2003904FF47A70029004E039
:104680000120039042F21070029081480168029864
:10469000B1FBF0F97D49039809684843B0FBF9F094
:1046A00042F21071081A7F4908807F480088098803
:1046B000884207DA7B4800887B49088002E00020B6
:1046C00078490880FEF7AEFD002500BF00BFFBF76C
:1046D0007BFD009000BFFCF7DFFA00BF7348046861
:1046E00000BFFCF7F3FA00BF0098FBF771FD00BFB5
:1046F00000BF2EE000BF00BFFBF766FD009000BFCB
:10470000FCF7CAFA00BF54F8980F6060002044F824
:10471000980900BFFCF7DAFA00BF0098FBF758FDD4
:1047200000BF00BFD4F89C00054400BF00BFFBF7EA
:104730004BFD009000BFFCF7AFFA00BFD4F8B840C3
:1047400000BFFCF7C3FA00BF0098FBF741FD00BFB4
:1047500000BF002CCED145B34E48854205D242F26F
:10476000107005904FF0010B1BE04B48854205D2BD
:104770004FF47A7005904FF00A0B12E047488542DB
:1047800003D26420059083460BE04548854204D25D
:104790000A2005904FF47A7B03E00120059042F255
:1047A000107BB5FBFBF0049003E000200590012096
:1047B000049000BF00BFFBF707FD009000BFFCF7AF
:1047C0006BFA00BF3948046800BFFCF77FFA00BFEE
:1047D0000098FBF7FDFC00BF00BF2FE0D4F89C0061
:1047E000059948430499B0FBF1F086B242F210708B
:1047F000864200D90646A4F88860B4F88A00B04220
:1048000001DAA4F88A6001AB04F1A802111D204668
:10481000FEF7DEFE00BF00BFFBF7D6FC009000BF36
:10482000FCF73AFA00BFD4F8B84000BFFCF74EFAE4
:1048300000BF0098FBF7CCFC00BF00BF002CCDD11F
:104840001B480078012805D100201949087001A8EB
:10485000FEF7C4FBFCF7D4FAA0EB0A081548006881
:10486000404502D21348C0F8008001AA0021384612
:10487000FFF7D6F8B4E6000028900008D400002026
:104880004090000890000020C8000020D0000020C8
:10489000CC000020801A060000093D00005A620288
:1048A0000084D717C4000020C6000020E0000020CC
:1048B000C2000020D800002010B58AB004460020B5
:1048C0001F4908601F4908601F4908601F49087098
:1048D0001F4908701F48006820B946F62B602080E9
:1048E0000AB010BD1C4800681C490968884203D200
:1048F00046F62C602080F3E7194800781F2803D380
:1049000046F62A602080EBE7032000210591CDE9DF
:1049100007040691084610490968124A12680D4BAF
:104920001B68CDE90132CDE903100D480078002362
:104930000D4A0EA100901248FEF77EFC00BFCFE7A3
:10494000C8000020D0000020CC000020D4000020AF
:10495000C20000202C900008349000083C90000811
:1049600024900008309000089545000875432F4FAB
:10497000532D4949492053746174205461736B006D
:10498000CCFA002070B504460D4645B12A462146B2
:10499000064800F041FB032084F8360002E00220C4
:1049A00084F836002046FFF7BBFD70BDF8000020FC
:1049B0002DE9F04104460D4600BF002694F83770FB
:1049C00094F8360008285FD2DFE800F004191E1FB3
:1049D0001A1B20212046FFF7A3FD84F8375094F8D6
:1049E0003700FFF707FD2C480068844203D12046BA
:1049F000FFF758FD02E02046FFF774FD46E000BFD8
:104A000000BF84F8375041E000BF00BF00BF84F80A
:104A1000375094F83400082831D2DFE800F0300431
:104A200031050B06073200BF00BF00BF2046FFF76D
:104A3000AFFB27E02046FFF7ABFB206BC068466A60
:104A4000AF4205DD96F83700A84217DC002615E0D6
:104A500096F83700B84211D13046FFF7E1FA054623
:104A600096F83800A84202DA96F8380000E02846A6
:104A7000054696F83700A84200D1002602E000BFA4
:104A800000BF00BF00BF01E0BDE8F08100BF3446B9
:104A9000002C92D100BFF7E7200100200021C0F8D0
:104AA000B4100949096819B90021C0F8B81007E025
:104AB00005490968C0F8B81003490968C1F8B4008D
:104AC0000149086070470000E00000200021044A0E
:104AD0001160044A1180044A11600180704700008F
:104AE000E0000020E4000020DC00002070B5044657
:104AF00000202060A0606060E06020616061A061D3
:104B0000E06128A0206200206062A062E062206371
:104B1000A4F84600A064A065A4F85C00002104F19C
:104B20006000FFF759FA002020676067E067A4F88B
:104B30008400C4F88000002506E0002104F178001C
:104B400040F82510681CC5B2002DF6D00020343482
:104B5000A061E0662067E06084F85200A0676067AB
:104B60002082E0612062A4F85400A4F85600A065F9
:104B7000E065FCF745F90646266600206066E067BA
:104B800020706070A0702020E07020710020A06074
:104B9000C4F88000C4F8840004A0C4F88800343C41
:104BA00070BD00003F5461736B00000020000000E6
:104BB00070B504460D46002600BF00BFFBF704FB9E
:104BC000064600BFFCF768F800BF0020288094F874
:104BD0003600082868D2DFE800F004050607142B29
:104BE0003F5300BF00BF00BF00BFFCF76FF800BF1E
:104BF0003046FBF7EDFA00BF00BF47F253102880A4
:104C00005FE014F8860F401E207014F8860928B95A
:104C1000002084F836002046FFF72EFC00BFFCF78A
:104C200055F800BF3046FBF7D3FA00BF00BF48E09D
:104C300014F8860F401E207014F8860910B9012060
:104C400084F8360000BFFCF741F800BF3046FBF7A0
:104C5000BFFA00BF00BF34E014F8860F401E20707A
:104C600014F8860910B9022084F8360000BFFCF75A
:104C70002DF800BF3046FBF7ABFA00BF00BF20E0C5
:104C800014F8860F401E207014F8860910B903200E
:104C900084F8360000BFFCF719F800BF3046FBF778
:104CA00097FA00BF00BF0CE000BFFCF70FF800BF91
:104CB0003046FBF78DFA00BF00BF46F62D60288016
:104CC00070BD00BFFEF78EF800BFF9E708B50648D3
:104CD0000068FEF77BFB00BF6A46002103480068BE
:104CE000FEF79EFEF8E7000020010020409000083B
:104CF0002DE9F8430446884617461D464FF0000943
:104D000000BF00BFFBF760FA814600BFFBF7C4FF9E
:104D100000BF0CB971480468A7640020288094F88B
:104D20003600082878D2DFE800F004055859060755
:104D30005A5B00BF00BF00BF0420012804D0022836
:104D400015D0042839D126E0E06CFF280ED100BF31
:104D5000FBF7BCFF00BF4846FBF73AFA00BF00BFB5
:104D600046F6C55028800020BDE8F88326E04FF6BF
:104D7000FF71E06C88420DD100BFFBF7A7FF00BFB9
:104D80004846FBF725FA00BF00BF46F6C55028800D
:104D90000020E9E712E0E06C401C68B900BFFBF7B7
:104DA00095FF00BF4846FBF713FA00BF00BF46F669
:104DB000C55028800020D7E700E000BF00BFE06CAE
:104DC000401CE064E66C00BFFBF780FF00BF484674
:104DD000FBF7FEF900BF00BF7DE000BF00BF00BFD2
:104DE00094F83400072818D100231A4621461846A3
:104DF0000097FFF75DFAE66C00BFFBF767FF00BFA7
:104E00004846FBF7E5F900BF00BF08F40040002862
:104E100052D1FDF7E7FF4FE04FE00420012804D016
:104E2000022814D0042838D125E0E06CFF280DD1E9
:104E300000BFFBF74BFF00BF4846FBF7C9F900BFB7
:104E400000BF46F6C550288000208DE726E04FF6CB
:104E5000FF71E06C88420DD100BFFBF737FF00BF48
:104E60004846FBF7B5F900BF00BF46F6C55028809D
:104E7000002079E712E0E06C401C68B900BFFBF746
:104E800025FF00BF4846FBF7A3F900BF00BF46F669
:104E9000C5502880002067E700E000BF00BFE06C3D
:104EA000401CE064E66C00BFFBF710FF00BF484603
:104EB000FBF78EF900BF00BF0DE000BFFBF706FF58
:104EC00000BF4846FBF784F900BF00BF46F62D60DF
:104ED0002880002600BF00BF304645E720010020A3
:104EE00070B504460D46002600BF00BFFBF76CF905
:104EF000064600BFFBF7D0FE00BF0CB9444804686B
:104F000043480068844210D14248007800280CDDF4
:104F100000BFFBF7DBFE00BF3046FBF759F900BFCF
:104F200000BF46F66350288070BD0020288094F8AA
:104F3000360008285AD2DFE800F004172737474820
:104F4000494A042084F83600012084F8860020466F
:104F5000FFF7E6FA00BFFBF7B9FE00BF3046FBF7EC
:104F600037F900BF00BF4EE0052084F8360001206D
:104F700084F8860000BFFBF7A9FE00BF3046FBF7B0
:104F800027F900BF00BF3EE0062084F8360001206C
:104F900084F8860000BFFBF799FE00BF3046FBF7A0
:104FA00017F900BF00BF2EE0072084F8360001206B
:104FB00084F8860000BFFBF789FE00BF3046FBF790
:104FC00007F900BF00BF1EE000BF00BF00BF94F89C
:104FD0008600401C84F8860000BFFBF777FE00BF08
:104FE0003046FBF7F5F800BF00BF0CE000BFFBF751
:104FF0006DFE00BF3046FBF7EBF800BF00BF46F682
:105000002D60288090E700BFFDF7ECFE00BF8BE726
:1050100020010020BA00002070B51546066846B988
:105020000D6500264E618E61C86101600126868093
:1050300033E0046802682B4624E0166D9E421DD3BF
:1050400096696EB90B6500268E614A61C861166D5E
:10505000F61A1665916101608688761C86800CE0E0
:1050600094690B658C614A61C861166DF61A166504
:10507000916161618688761C868070BD166D9B1B70
:1050800014465269002AD8D10B658C6100264E6106
:10509000C86161618688761C868000BFEDE70000EC
:1050A0002DE9F04104460D4690461F46B8F1040F25
:1050B0000ED1284800682E1A16F5803F01D8002E20
:1050C0003CD10020206547F27E203880BDE8F08189
:1050D000B8F1080F29D11F49606D0968081AA84264
:1050E00005D92E461B4800682844606526E019490A
:1050F000606D0968081A2E1A16F5803F00D886B927
:105100001449606D0968081AB0FBF5F005FB005002
:10511000616D084460650020206547F27E2038807C
:10512000D4E7606D2844606508E00DB12E4605E0C7
:105130000020206547F27E203880C7E7012084F8F0
:105140003600324621460448FFF766FF00203880CB
:1051500000BFBBE7E8000020F000002030B5C269C6
:1051600083694169ABB929B900241460948004654E
:10517000C4611EE000248C610C6D056D2C440C652F
:1051800011609488641E9480002444610465C461A5
:105190000FE0596121B18B610C6D056D2C440C65DC
:1051A000002484619488641E948000244461046512
:1051B000C46130BD2DE9F0474FF0000900BF00BFCA
:1051C000FBF702F8814600BFFBF766FD00BFFBF767
:1051D00017FE064600271E4D2C683CB3206D401E6E
:1051E00020651FE0781C87B294F83600012806D1AC
:1051F000002084F836002046FFF73EF906E094F8D8
:105200003600052802D1042084F836006069286041
:105210002C6814B90020A88007E0A888401EA88048
:105220000020A061206D0028DCD000BFEF80FBF7DC
:10523000E7FDA0EB060800BFFBF748FD00BF4846AE
:10524000FAF7C6FF00BF00BF4046BDE8F087000088
:10525000F00000202DE9F05F4FF0000B00BF00BF11
:10526000FAF7B2FF834600BFFBF716FD00BFFBF75E
:10527000C7FD07464FF000083C4D2C68002C63D05A
:10528000206D401E20655BE008F101001FFA80F8E8
:10529000002694F83400042802D1206BC068466AC6
:1052A0000020A065A4F85C00FBF7AAFDA0642046DE
:1052B000FEF7C3FF94F83600032806D12046FFF717
:1052C000DBF8002084F8360006E094F83600072862
:1052D00002D1042084F83600032084F83500002031
:1052E00084F8340006B396F8370096F838108842F0
:1052F0001AD096F8370094F83710884214D1304607
:10530000FEF78EFE814696F83800484502DA96F898
:10531000380000E04846814696F83700484503D0FB
:1053200049463046FFF744FB606928602C6814B991
:105330000020A88007E0A888401EA8800020A06167
:10534000206D0028A0D000BFA5F80680FBF758FD0F
:10535000A0EB070A00BFFBF7B9FC00BF5846FAF7FD
:1053600037FF00BF00BF5046BDE8F09FF8000020A7
:1053700008B500272CE06B46002211461046FEF7C8
:1053800031F8BDF8000018BB00BF00BFFAF71CFFE2
:10539000074600BFFBF780FC00BF0E480068401CBA
:1053A0000C49086000BFFBF791FC00BF3846FAF7D4
:1053B0000FFF00BF00BFFFF7FDFE0646FFF74AFFE5
:1053C0000546741904480068A04201D202480460EE
:1053D000D1E70000E8000020EC00002010B58AB002
:1053E00004460020204908602049086020490860E0
:1053F0001E498880C8801E498880C8801D48006872
:1054000020B947F2122020800AB010BD1A48006867
:105410001A490968884203D247F213202080F3E733
:10542000174800781F2803D347F211202080EBE7AC
:105430000B2000210591CDE90704069108460E498D
:105440000A68104909680B4B1B68CDE90131CDE9A9
:1054500003200B48007800230B4A0CA10090104851
:10546000FDF7EAFE00BFCFE7E8000020F0000020D3
:10547000F800002048900008509000083C90000878
:10548000449000084C9000087153000875432F4F5A
:10549000532D494949205469636B205461736B0053
:1054A0008CFB002010B58AB0044600202F4908600C
:1054B0002F4908602F4908802F48006840B12F48C5
:1054C00000682D490968B0FBF1F02D49086006E03D
:1054D0002A4800680A21B0FBF1F0294908602848F1
:1054E00000682849086000202749086027490860AB
:1054F000224627A12A48FDF78BFA208808B10AB076
:1055000010BD2848006818B947F247302080F6E7F8
:105510002548006825490968884203D247F2483087
:105520002080ECE7224800781F2803D347F246305A
:105530002080E4E70B20002105910A46CDE907040D
:105540000691194800681B490968164B1B68CDE98C
:105550000131CDE90302164800780023164A17A14D
:1055600000901C48FDF768FE00BFC8E7000100205E
:1055700008010020040100205C9000084090000811
:10558000180100201C01002014010020100100203F
:105590004F5320546D72204D7574657800000000E3
:1055A0004CFC002060900008689000083C900008C7
:1055B0005890000864900008F155000875432F4F7B
:1055C000532D4949492054696D6572205461736BAC
:1055D000000000007CFC00200EB502A801AB0022F8
:1055E000114600900148FDF749FA0EBD4CFC002021
:1055F0001CB53FE001AB6A4600210846FDF7F2FE0C
:10560000FFF7EAFFFBF7FCFB06461B480068401C5F
:1056100019490860194804681FE001A8FDF734FC27
:10562000D4F81080A069401EA061A06980B9A08C48
:10563000022802D1206AA06105E0204600F022F88D
:10564000032084F82600A56815B12046E168A84724
:10565000444601A8FDF74AFC00BF002CDDD1FBF752
:10566000CFFB871B06480068B84201D20448076098
:1056700000F02AF8BEE70000140100200801002015
:105680001001002010B50E4B1B68834206D1016942
:105690000B4B196039B100234B6104E04169026989
:1056A0000A6102B15161012380F8263000230361B1
:1056B0004361044B1B885B1E024C238010BD00001D
:1056C000080100200401002008B56A4600210248B4
:1056D000FDF7CAFA08BD00004CFC002029B1064ABB
:1056E00012680243044B1A6004E0034A12688243C2
:1056F000014B1A60704700003038024029B1064A59
:1057000012680243044B1A6004E0034A12688243A1
:10571000014B1A60704700004438024029B1064A24
:1057200012680243044B1A6004E0034A1268824381
:10573000014B1A607047000024380240F0B5002188
:1057400000220024022500260223324F3F6807F082
:105750000C0121B1042905D0082937D105E02E4FCD
:10576000076036E02D4F076033E02A4F3F1F3F6848
:10577000C7F38056274F3F1F3F6807F03F036EB1C6
:10578000264FB7FBF3F7DFF88CC0ACF1040CDCF864
:1057900000C0CCF3881C07FB0CF40CE01E4FB7FBD9
:1057A000F3F7DFF870C0ACF1040CDCF800C0CCF308
:1057B000881C07FB0CF4174F3F1F3F68C7F30147D6
:1057C0007F1C7D00B4FBF5F7076002E0124F076015
:1057D00000BF00BF0F4F3F6807F0F0010909104FED
:1057E0007A5C0768D74047600A4F3F6807F4E0518A
:1057F000890A0B4F7A5C4768D7408760054F3F683E
:1058000007F46041490B064F7A5C4768D740C76090
:10581000F0BD0000083802400024F40040787D010B
:1058200040010020014600BF080900EB8000420053
:1058300001F00F001044C0B27047000070B506467A
:105840000C4600250E4800680E4900EA0105280CA8
:10585000E070C5F30420607005F03F00A070C5F350
:10586000423020705EB9E078FFF7DCFFE0706078CE
:10587000FFF7D8FF6070A078FFF7D4FFA07070BD6D
:10588000042800403FFFFF0070B506460C46002587
:105890000F4800680F4900EA0105C5F30540207074
:1058A000C5F30620607005F07F00A07005F480004D
:1058B000000CE0705EB92078FFF7B4FF20706078CC
:1058C000FFF7B0FF6070A078FFF7ACFFA07070BD6D
:1058D000002800407F7F7F0001490860704700007A
:1058E000382C01400149086070470000382C014005
:1058F0000149086070470000A08025420149086006
:10590000704700008C85254200210B4B02681A600D
:105910001B1D42681A601A1D116821F0F701D0E9B9
:1059200002231A4303691A4343691A431143024A83
:105930000832116070470000242C014010B501218D
:10594000C802FFF7EBFE00214FF40060FFF7E6FE10
:1059500010BD000001480068C0B27047102C014023
:1059600001460020034A12680A400AB1012000E003
:1059700000207047342C014001460020034A126881
:105980000A400AB1012000E000207047342C014099
:105990000248006800F0030070470000002C01403E
:1059A00008B5014600200090024808440090009885
:1059B000006808BD142C014010B5FCF711FA10BDA9
:1059C00029B1064A12680243044B1A6004E0034AF4
:1059D00012688243014B1A60704700003C2C014062
:1059E00000210A4A116847F6FF629143027D8368ED
:1059F0001A4343681A43C3681A4303681A43036986
:105A00001A431143014A116070470000042C014001
:105A10000148006870470000802C01400021094BBC
:105A200002681A601A1D11686FF30A01D0E9012398
:105A30001A43C3681A4303691A431143014A121DEA
:105A400011607047082C0140014908607047000050
:105A5000002C01400CB500200190009041480068E6
:105A600040F480303F49086000BF3E48006800F4C1
:105A7000003000900198401C0190009818B90198DE
:105A8000B0F5A04FF1D13748006800F4003010B1F4
:105A90000120009001E0002000900098012860D1D2
:105AA00030484030006840F080502E494031086056
:105AB0002D48006840F440402B49086029480830D0
:105AC00000682849083108600846006840F4004032
:105AD00008600846006840F4A05008602348091F89
